{"abi":[{"type":"constructor","inputs":[],"stateMutability":"nonpayable"},{"type":"function","name":"approve","inputs":[{"name":"to","type":"address","internalType":"address"},{"name":"tokenId","type":"uint256","internalType":"uint256"}],"outputs":[],"stateMutability":"nonpayable"},{"type":"function","name":"balanceOf","inputs":[{"name":"owner","type":"address","internalType":"address"}],"outputs":[{"name":"","type":"uint256","internalType":"uint256"}],"stateMutability":"view"},{"type":"function","name":"getApproved","inputs":[{"name":"tokenId","type":"uint256","internalType":"uint256"}],"outputs":[{"name":"","type":"address","internalType":"address"}],"stateMutability":"view"},{"type":"function","name":"isApprovedForAll","inputs":[{"name":"owner","type":"address","internalType":"address"},{"name":"operator","type":"address","internalType":"address"}],"outputs":[{"name":"","type":"bool","internalType":"bool"}],"stateMutability":"view"},{"type":"function","name":"mint","inputs":[{"name":"to","type":"address","internalType":"address"},{"name":"newTokenURI","type":"string","internalType":"string"}],"outputs":[],"stateMutability":"nonpayable"},{"type":"function","name":"name","inputs":[],"outputs":[{"name":"","type":"string","internalType":"string"}],"stateMutability":"view"},{"type":"function","name":"nextTokenId","inputs":[],"outputs":[{"name":"","type":"uint256","internalType":"uint256"}],"stateMutability":"view"},{"type":"function","name":"owner","inputs":[],"outputs":[{"name":"","type":"address","internalType":"address"}],"stateMutability":"view"},{"type":"function","name":"ownerOf","inputs":[{"name":"tokenId","type":"uint256","internalType":"uint256"}],"outputs":[{"name":"","type":"address","internalType":"address"}],"stateMutability":"view"},{"type":"function","name":"renounceOwnership","inputs":[],"outputs":[],"stateMutability":"nonpayable"},{"type":"function","name":"safeTransferFrom","inputs":[{"name":"from","type":"address","internalType":"address"},{"name":"to","type":"address","internalType":"address"},{"name":"tokenId","type":"uint256","internalType":"uint256"}],"outputs":[],"stateMutability":"nonpayable"},{"type":"function","name":"safeTransferFrom","inputs":[{"name":"from","type":"address","internalType":"address"},{"name":"to","type":"address","internalType":"address"},{"name":"tokenId","type":"uint256","internalType":"uint256"},{"name":"data","type":"bytes","internalType":"bytes"}],"outputs":[],"stateMutability":"nonpayable"},{"type":"function","name":"setApprovalForAll","inputs":[{"name":"operator","type":"address","internalType":"address"},{"name":"approved","type":"bool","internalType":"bool"}],"outputs":[],"stateMutability":"nonpayable"},{"type":"function","name":"supportsInterface","inputs":[{"name":"interfaceId","type":"bytes4","internalType":"bytes4"}],"outputs":[{"name":"","type":"bool","internalType":"bool"}],"stateMutability":"view"},{"type":"function","name":"symbol","inputs":[],"outputs":[{"name":"","type":"string","internalType":"string"}],"stateMutability":"view"},{"type":"function","name":"tokenURI","inputs":[{"name":"tokenId","type":"uint256","internalType":"uint256"}],"outputs":[{"name":"","type":"string","internalType":"string"}],"stateMutability":"view"},{"type":"function","name":"transferFrom","inputs":[{"name":"from","type":"address","internalType":"address"},{"name":"to","type":"address","internalType":"address"},{"name":"tokenId","type":"uint256","internalType":"uint256"}],"outputs":[],"stateMutability":"nonpayable"},{"type":"function","name":"transferOwnership","inputs":[{"name":"newOwner","type":"address","internalType":"address"}],"outputs":[],"stateMutability":"nonpayable"},{"type":"event","name":"Approval","inputs":[{"name":"owner","type":"address","indexed":true,"internalType":"address"},{"name":"approved","type":"address","indexed":true,"internalType":"address"},{"name":"tokenId","type":"uint256","indexed":true,"internalType":"uint256"}],"anonymous":false},{"type":"event","name":"ApprovalForAll","inputs":[{"name":"owner","type":"address","indexed":true,"internalType":"address"},{"name":"operator","type":"address","indexed":true,"internalType":"address"},{"name":"approved","type":"bool","indexed":false,"internalType":"bool"}],"anonymous":false},{"type":"event","name":"OwnershipTransferred","inputs":[{"name":"previousOwner","type":"address","indexed":true,"internalType":"address"},{"name":"newOwner","type":"address","indexed":true,"internalType":"address"}],"anonymous":false},{"type":"event","name":"Transfer","inputs":[{"name":"from","type":"address","indexed":true,"internalType":"address"},{"name":"to","type":"address","indexed":true,"internalType":"address"},{"name":"tokenId","type":"uint256","indexed":true,"internalType":"uint256"}],"anonymous":false},{"type":"error","name":"ERC721IncorrectOwner","inputs":[{"name":"sender","type":"address","internalType":"address"},{"name":"tokenId","type":"uint256","internalType":"uint256"},{"name":"owner","type":"address","internalType":"address"}]},{"type":"error","name":"ERC721InsufficientApproval","inputs":[{"name":"operator","type":"address","internalType":"address"},{"name":"tokenId","type":"uint256","internalType":"uint256"}]},{"type":"error","name":"ERC721InvalidApprover","inputs":[{"name":"approver","type":"address","internalType":"address"}]},{"type":"error","name":"ERC721InvalidOperator","inputs":[{"name":"operator","type":"address","internalType":"address"}]},{"type":"error","name":"ERC721InvalidOwner","inputs":[{"name":"owner","type":"address","internalType":"address"}]},{"type":"error","name":"ERC721InvalidReceiver","inputs":[{"name":"receiver","type":"address","internalType":"address"}]},{"type":"error","name":"ERC721InvalidSender","inputs":[{"name":"sender","type":"address","internalType":"address"}]},{"type":"error","name":"ERC721NonexistentToken","inputs":[{"name":"tokenId","type":"uint256","internalType":"uint256"}]},{"type":"error","name":"OwnableInvalidOwner","inputs":[{"name":"owner","type":"address","internalType":"address"}]},{"type":"error","name":"OwnableUnauthorizedAccount","inputs":[{"name":"account","type":"address","internalType":"address"}]}],"bytecode":{"object":"0x608060405234801561000f575f5ffd5b5033604051806040016040528060078152602001661514140b53919560ca1b8152506040518060400160405280600381526020016205450560ec1b815250815f908161005b9190610190565b5060016100688282610190565b5050506001600160a01b03811661009857604051631e4fbdf760e01b81525f600482015260240160405180910390fd5b6100a1816100a7565b5061024a565b600680546001600160a01b038381166001600160a01b0319831681179093556040519116919082907f8be0079c531659141344cd1fd0a4f28419497f9722a3daafe3b4186f6b6457e0905f90a35050565b634e487b7160e01b5f52604160045260245ffd5b600181811c9082168061012057607f821691505b60208210810361013e57634e487b7160e01b5f52602260045260245ffd5b50919050565b601f82111561018b57805f5260205f20601f840160051c810160208510156101695750805b601f840160051c820191505b81811015610188575f8155600101610175565b50505b505050565b81516001600160401b038111156101a9576101a96100f8565b6101bd816101b7845461010c565b84610144565b6020601f8211600181146101ef575f83156101d85750848201515b5f19600385901b1c1916600184901b178455610188565b5f84815260208120601f198516915b8281101561021e57878501518255602094850194600190920191016101fe565b508482101561023b57868401515f19600387901b60f8161c191681555b50505050600190811b01905550565b61114f806102575f395ff3fe608060405234801561000f575f5ffd5b5060043610610111575f3560e01c806375794a3c1161009e578063b88d4fde1161006e578063b88d4fde14610229578063c87b56dd1461023c578063d0def5211461024f578063e985e9c514610262578063f2fde38b14610275575f5ffd5b806375794a3c146101f45780638da5cb5b146101fd57806395d89b411461020e578063a22cb46514610216575f5ffd5b806323b872dd116100e457806323b872dd1461019257806342842e0e146101a55780636352211e146101b857806370a08231146101cb578063715018a6146101ec575f5ffd5b806301ffc9a71461011557806306fdde031461013d578063081812fc14610152578063095ea7b31461017d575b5f5ffd5b610128610123366004610c8e565b610288565b60405190151581526020015b60405180910390f35b6101456102d9565b6040516101349190610cde565b610165610160366004610cf0565b610368565b6040516001600160a01b039091168152602001610134565b61019061018b366004610d22565b61038f565b005b6101906101a0366004610d4a565b61039e565b6101906101b3366004610d4a565b61042c565b6101656101c6366004610cf0565b61044b565b6101de6101d9366004610d84565b610455565b604051908152602001610134565b61019061049a565b6101de60075481565b6006546001600160a01b0316610165565b6101456104ad565b610190610224366004610d9d565b6104bc565b610190610237366004610e61565b6104c7565b61014561024a366004610cf0565b6104df565b61019061025d366004610ed8565b6105f8565b610128610270366004610f36565b610637565b610190610283366004610d84565b610664565b5f6001600160e01b031982166380ac58cd60e01b14806102b857506001600160e01b03198216635b5e139f60e01b145b806102d357506301ffc9a760e01b6001600160e01b03198316145b92915050565b60605f80546102e790610f67565b80601f016020809104026020016040519081016040528092919081815260200182805461031390610f67565b801561035e5780601f106103355761010080835404028352916020019161035e565b820191905f5260205f20905b81548152906001019060200180831161034157829003601f168201915b5050505050905090565b5f610372826106a1565b505f828152600460205260409020546001600160a01b03166102d3565b61039a8282336106d9565b5050565b6001600160a01b0382166103cc57604051633250574960e11b81525f60048201526024015b60405180910390fd5b5f6103d88383336106e6565b9050836001600160a01b0316816001600160a01b031614610426576040516364283d7b60e01b81526001600160a01b03808616600483015260248201849052821660448201526064016103c3565b50505050565b61044683838360405180602001604052805f8152506104c7565b505050565b5f6102d3826106a1565b5f6001600160a01b03821661047f576040516322718ad960e21b81525f60048201526024016103c3565b506001600160a01b03165f9081526003602052604090205490565b6104a26107d8565b6104ab5f610805565b565b6060600180546102e790610f67565b61039a338383610856565b6104d284848461039e565b61042633858585856108f4565b5f818152600260205260409020546060906001600160a01b031661055d5760405162461bcd60e51b815260206004820152602f60248201527f4552433732314d657461646174613a2055524920717565727920666f72206e6f60448201526e3732bc34b9ba32b73a103a37b5b2b760891b60648201526084016103c3565b5f828152600860205260409020805461057590610f67565b80601f01602080910402602001604051908101604052809291908181526020018280546105a190610f67565b80156105ec5780601f106105c3576101008083540402835291602001916105ec565b820191905f5260205f20905b8154815290600101906020018083116105cf57829003601f168201915b50505050509050919050565b6106006107d8565b600780549081905f61061183610f9f565b91905055506106208382610a1c565b5f8181526008602052604090206104268382611007565b6001600160a01b039182165f90815260056020908152604080832093909416825291909152205460ff1690565b61066c6107d8565b6001600160a01b03811661069557604051631e4fbdf760e01b81525f60048201526024016103c3565b61069e81610805565b50565b5f818152600260205260408120546001600160a01b0316806102d357604051637e27328960e01b8152600481018490526024016103c3565b6104468383836001610a35565b5f828152600260205260408120546001600160a01b039081169083161561071257610712818486610b39565b6001600160a01b0381161561074c5761072d5f855f5f610a35565b6001600160a01b0381165f90815260036020526040902080545f190190555b6001600160a01b0385161561077a576001600160a01b0385165f908152600360205260409020805460010190555b5f8481526002602052604080822080546001600160a01b0319166001600160a01b0389811691821790925591518793918516917fddf252ad1be2c89b69c2b068fc378daa952ba7f163c4a11628f55a4df523b3ef91a4949350505050565b6006546001600160a01b031633146104ab5760405163118cdaa760e01b81523360048201526024016103c3565b600680546001600160a01b038381166001600160a01b0319831681179093556040519116919082907f8be0079c531659141344cd1fd0a4f28419497f9722a3daafe3b4186f6b6457e0905f90a35050565b6001600160a01b03821661088857604051630b61174360e31b81526001600160a01b03831660048201526024016103c3565b6001600160a01b038381165f81815260056020908152604080832094871680845294825291829020805460ff191686151590811790915591519182527f17307eab39ab6107e8899845ad3d59bd9653f200f220920489ca2b5937696c31910160405180910390a3505050565b6001600160a01b0383163b15610a1557604051630a85bd0160e11b81526001600160a01b0384169063150b7a02906109369088908890879087906004016110c2565b6020604051808303815f875af1925050508015610970575060408051601f3d908101601f1916820190925261096d918101906110fe565b60015b6109d7573d80801561099d576040519150601f19603f3d011682016040523d82523d5f602084013e6109a2565b606091505b5080515f036109cf57604051633250574960e11b81526001600160a01b03851660048201526024016103c3565b805181602001fd5b6001600160e01b03198116630a85bd0160e11b14610a1357604051633250574960e11b81526001600160a01b03851660048201526024016103c3565b505b5050505050565b61039a828260405180602001604052805f815250610b9d565b8080610a4957506001600160a01b03821615155b15610b0a575f610a58846106a1565b90506001600160a01b03831615801590610a845750826001600160a01b0316816001600160a01b031614155b8015610a975750610a958184610637565b155b15610ac05760405163a9fbf51f60e01b81526001600160a01b03841660048201526024016103c3565b8115610b085783856001600160a01b0316826001600160a01b03167f8c5be1e5ebec7d5bd14f71427d1e84f3dd0314c0f7b2291e5b200ac8c7c3b92560405160405180910390a45b505b50505f90815260046020526040902080546001600160a01b0319166001600160a01b0392909216919091179055565b610b44838383610bb4565b610446576001600160a01b038316610b7257604051637e27328960e01b8152600481018290526024016103c3565b60405163177e802f60e01b81526001600160a01b0383166004820152602481018290526044016103c3565b610ba78383610c18565b610446335f8585856108f4565b5f6001600160a01b03831615801590610c105750826001600160a01b0316846001600160a01b03161480610bed5750610bed8484610637565b80610c1057505f828152600460205260409020546001600160a01b038481169116145b949350505050565b6001600160a01b038216610c4157604051633250574960e11b81525f60048201526024016103c3565b5f610c4d83835f6106e6565b90506001600160a01b03811615610446576040516339e3563760e11b81525f60048201526024016103c3565b6001600160e01b03198116811461069e575f5ffd5b5f60208284031215610c9e575f5ffd5b8135610ca981610c79565b9392505050565b5f81518084528060208401602086015e5f602082860101526020601f19601f83011685010191505092915050565b602081525f610ca96020830184610cb0565b5f60208284031215610d00575f5ffd5b5035919050565b80356001600160a01b0381168114610d1d575f5ffd5b919050565b5f5f60408385031215610d33575f5ffd5b610d3c83610d07565b946020939093013593505050565b5f5f5f60608486031215610d5c575f5ffd5b610d6584610d07565b9250610d7360208501610d07565b929592945050506040919091013590565b5f60208284031215610d94575f5ffd5b610ca982610d07565b5f5f60408385031215610dae575f5ffd5b610db783610d07565b915060208301358015158114610dcb575f5ffd5b809150509250929050565b634e487b7160e01b5f52604160045260245ffd5b5f5f67ffffffffffffffff841115610e0457610e04610dd6565b50604051601f19601f85018116603f0116810181811067ffffffffffffffff82111715610e3357610e33610dd6565b604052838152905080828401851015610e4a575f5ffd5b838360208301375f60208583010152509392505050565b5f5f5f5f60808587031215610e74575f5ffd5b610e7d85610d07565b9350610e8b60208601610d07565b925060408501359150606085013567ffffffffffffffff811115610ead575f5ffd5b8501601f81018713610ebd575f5ffd5b610ecc87823560208401610dea565b91505092959194509250565b5f5f60408385031215610ee9575f5ffd5b610ef283610d07565b9150602083013567ffffffffffffffff811115610f0d575f5ffd5b8301601f81018513610f1d575f5ffd5b610f2c85823560208401610dea565b9150509250929050565b5f5f60408385031215610f47575f5ffd5b610f5083610d07565b9150610f5e60208401610d07565b90509250929050565b600181811c90821680610f7b57607f821691505b602082108103610f9957634e487b7160e01b5f52602260045260245ffd5b50919050565b5f60018201610fbc57634e487b7160e01b5f52601160045260245ffd5b5060010190565b601f82111561044657805f5260205f20601f840160051c81016020851015610fe85750805b601f840160051c820191505b81811015610a15575f8155600101610ff4565b815167ffffffffffffffff81111561102157611021610dd6565b6110358161102f8454610f67565b84610fc3565b6020601f821160018114611067575f83156110505750848201515b5f19600385901b1c1916600184901b178455610a15565b5f84815260208120601f198516915b828110156110965787850151825560209485019460019092019101611076565b50848210156110b357868401515f19600387901b60f8161c191681555b50505050600190811b01905550565b6001600160a01b03858116825284166020820152604081018390526080606082018190525f906110f490830184610cb0565b9695505050505050565b5f6020828403121561110e575f5ffd5b8151610ca981610c7956fea26469706673582212203a22b10775368ca475982085ed4b1f08f1d49288d9ac1e6c760f9b8769751e8e64736f6c634300081c0033","linkReferences":{}},"methodIdentifiers":{"approve(address,uint256)":"095ea7b3","balanceOf(address)":"70a08231","getApproved(uint256)":"081812fc","isApprovedForAll(address,address)":"e985e9c5","mint(address,string)":"d0def521","name()":"06fdde03","nextTokenId()":"75794a3c","owner()":"8da5cb5b","ownerOf(uint256)":"6352211e","renounceOwnership()":"715018a6","safeTransferFrom(address,address,uint256)":"42842e0e","safeTransferFrom(address,address,uint256,bytes)":"b88d4fde","setApprovalForAll(address,bool)":"a22cb465","supportsInterface(bytes4)":"01ffc9a7","symbol()":"95d89b41","tokenURI(uint256)":"c87b56dd","transferFrom(address,address,uint256)":"23b872dd","transferOwnership(address)":"f2fde38b"},"id":38}